{
  "address": "0x5F142a0Cc0E760AC5425Fae06E5EE05D7160698F",
  "abi": [
    {
      "inputs": [
        {
          "internalType": "address",
          "name": "owner",
          "type": "address"
        },
        {
          "internalType": "address",
          "name": "user",
          "type": "address"
        },
        {
          "internalType": "address",
          "name": "factory",
          "type": "address"
        },
        {
          "internalType": "address",
          "name": "weth",
          "type": "address"
        },
        {
          "internalType": "address",
          "name": "_pow",
          "type": "address"
        },
        {
          "internalType": "address",
          "name": "_sPow",
          "type": "address"
        }
      ],
      "stateMutability": "nonpayable",
      "type": "constructor"
    },
    {
      "inputs": [],
      "name": "OnlyOwner",
      "type": "error"
    },
    {
      "inputs": [],
      "name": "OnlyTrusted",
      "type": "error"
    },
    {
      "inputs": [],
      "name": "SlippageProtection",
      "type": "error"
    },
    {
      "inputs": [],
      "name": "TransferFailed",
      "type": "error"
    },
    {
      "anonymous": false,
      "inputs": [
        {
          "indexed": false,
          "internalType": "uint256",
          "name": "amount",
          "type": "uint256"
        }
      ],
      "name": "Serve",
      "type": "event"
    },
    {
      "anonymous": false,
      "inputs": [
        {
          "indexed": true,
          "internalType": "address",
          "name": "token",
          "type": "address"
        },
        {
          "indexed": false,
          "internalType": "address",
          "name": "bridge",
          "type": "address"
        }
      ],
      "name": "SetBridge",
      "type": "event"
    },
    {
      "anonymous": false,
      "inputs": [
        {
          "indexed": true,
          "internalType": "address",
          "name": "owner",
          "type": "address"
        }
      ],
      "name": "SetOwner",
      "type": "event"
    },
    {
      "anonymous": false,
      "inputs": [
        {
          "indexed": true,
          "internalType": "address",
          "name": "user",
          "type": "address"
        },
        {
          "indexed": false,
          "internalType": "bool",
          "name": "isTrusted",
          "type": "bool"
        }
      ],
      "name": "SetTrusted",
      "type": "event"
    },
    {
      "inputs": [
        {
          "internalType": "address",
          "name": "",
          "type": "address"
        }
      ],
      "name": "bridges",
      "outputs": [
        {
          "internalType": "address",
          "name": "",
          "type": "address"
        }
      ],
      "stateMutability": "view",
      "type": "function"
    },
    {
      "inputs": [
        {
          "internalType": "contract IUniswapV2Pair[]",
          "name": "lpTokens",
          "type": "address[]"
        },
        {
          "internalType": "uint256[]",
          "name": "amounts",
          "type": "uint256[]"
        },
        {
          "internalType": "uint256[]",
          "name": "minimumOut0",
          "type": "uint256[]"
        },
        {
          "internalType": "uint256[]",
          "name": "minimumOut1",
          "type": "uint256[]"
        }
      ],
      "name": "burnPairs",
      "outputs": [],
      "stateMutability": "nonpayable",
      "type": "function"
    },
    {
      "inputs": [
        {
          "internalType": "uint256",
          "name": "amountIn",
          "type": "uint256"
        },
        {
          "internalType": "uint256",
          "name": "minOutAmount",
          "type": "uint256"
        }
      ],
      "name": "buyPow",
      "outputs": [
        {
          "internalType": "uint256",
          "name": "amountOut",
          "type": "uint256"
        }
      ],
      "stateMutability": "nonpayable",
      "type": "function"
    },
    {
      "inputs": [
        {
          "internalType": "address[]",
          "name": "tokens",
          "type": "address[]"
        },
        {
          "internalType": "uint256[]",
          "name": "amountsIn",
          "type": "uint256[]"
        },
        {
          "internalType": "uint256[]",
          "name": "minimumOuts",
          "type": "uint256[]"
        }
      ],
      "name": "buyWeth",
      "outputs": [],
      "stateMutability": "nonpayable",
      "type": "function"
    },
    {
      "inputs": [
        {
          "internalType": "address",
          "name": "to",
          "type": "address"
        },
        {
          "internalType": "uint256",
          "name": "_value",
          "type": "uint256"
        },
        {
          "internalType": "bytes",
          "name": "data",
          "type": "bytes"
        }
      ],
      "name": "doAction",
      "outputs": [],
      "stateMutability": "nonpayable",
      "type": "function"
    },
    {
      "inputs": [],
      "name": "factory",
      "outputs": [
        {
          "internalType": "contract IUniswapV2Factory",
          "name": "",
          "type": "address"
        }
      ],
      "stateMutability": "view",
      "type": "function"
    },
    {
      "inputs": [],
      "name": "owner",
      "outputs": [
        {
          "internalType": "address",
          "name": "",
          "type": "address"
        }
      ],
      "stateMutability": "view",
      "type": "function"
    },
    {
      "inputs": [],
      "name": "pow",
      "outputs": [
        {
          "internalType": "address",
          "name": "",
          "type": "address"
        }
      ],
      "stateMutability": "view",
      "type": "function"
    },
    {
      "inputs": [],
      "name": "sPow",
      "outputs": [
        {
          "internalType": "address",
          "name": "",
          "type": "address"
        }
      ],
      "stateMutability": "view",
      "type": "function"
    },
    {
      "inputs": [
        {
          "internalType": "address",
          "name": "token",
          "type": "address"
        },
        {
          "internalType": "address",
          "name": "bridge",
          "type": "address"
        }
      ],
      "name": "setBridge",
      "outputs": [],
      "stateMutability": "nonpayable",
      "type": "function"
    },
    {
      "inputs": [
        {
          "internalType": "address",
          "name": "newOwner",
          "type": "address"
        }
      ],
      "name": "setOwner",
      "outputs": [],
      "stateMutability": "nonpayable",
      "type": "function"
    },
    {
      "inputs": [
        {
          "internalType": "address",
          "name": "user",
          "type": "address"
        },
        {
          "internalType": "bool",
          "name": "isTrusted",
          "type": "bool"
        }
      ],
      "name": "setTrusted",
      "outputs": [],
      "stateMutability": "nonpayable",
      "type": "function"
    },
    {
      "inputs": [
        {
          "internalType": "uint256",
          "name": "amount",
          "type": "uint256"
        }
      ],
      "name": "sweep",
      "outputs": [],
      "stateMutability": "nonpayable",
      "type": "function"
    },
    {
      "inputs": [
        {
          "internalType": "address",
          "name": "",
          "type": "address"
        }
      ],
      "name": "trusted",
      "outputs": [
        {
          "internalType": "bool",
          "name": "",
          "type": "bool"
        }
      ],
      "stateMutability": "view",
      "type": "function"
    },
    {
      "inputs": [
        {
          "internalType": "address[]",
          "name": "tokensA",
          "type": "address[]"
        },
        {
          "internalType": "address[]",
          "name": "tokensB",
          "type": "address[]"
        },
        {
          "internalType": "uint256[]",
          "name": "amounts",
          "type": "uint256[]"
        },
        {
          "internalType": "uint256[]",
          "name": "minimumOuts",
          "type": "uint256[]"
        }
      ],
      "name": "unwindPairs",
      "outputs": [],
      "stateMutability": "nonpayable",
      "type": "function"
    },
    {
      "inputs": [],
      "name": "weth",
      "outputs": [
        {
          "internalType": "address",
          "name": "",
          "type": "address"
        }
      ],
      "stateMutability": "view",
      "type": "function"
    },
    {
      "inputs": [
        {
          "internalType": "address",
          "name": "token",
          "type": "address"
        },
        {
          "internalType": "address",
          "name": "to",
          "type": "address"
        },
        {
          "internalType": "uint256",
          "name": "_value",
          "type": "uint256"
        }
      ],
      "name": "withdraw",
      "outputs": [],
      "stateMutability": "nonpayable",
      "type": "function"
    },
    {
      "inputs": [],
      "name": "wrapEth",
      "outputs": [],
      "stateMutability": "nonpayable",
      "type": "function"
    },
    {
      "stateMutability": "payable",
      "type": "receive"
    }
  ],
  "transactionHash": "0xe611358e7e5ec2bf435dbaa040bc5fd8c1ef7efaee6033c0987240e86619e872",
  "args": [
    "0x906815B1EeCb947c9bC9C158D0Bb0E6C42074150",
    "0x906815B1EeCb947c9bC9C158D0Bb0E6C42074150",
    "0x62009bD6349A3A1d7f1bcC7C69492Cd26F1FBF75",
    "0xC02aaA39b223FE8D0A0e5C4F27eAD9083C756Cc2",
    "0x02Cc78362D8124A17d3F884Dbd7476c4ec534Cdb",
    "0x5Bb2de70EeE1aD7206927bA72281351F141bA594"
  ],
  "solcInputHash": "67a740e0d6c7cfa7878a614d5a276fa0",
  "bytecode": "0x6101006040523480156200001257600080fd5b5060405162001be338038062001be383398101604081905262000035916200013c565b600080546001600160a01b0319166001600160a01b038881169190911782558681168252600160208190526040808420805460ff19169092179091558254905189938993899389938793879387938693869391909216917f167d3e9c1016ab80e58802ca9da10ce5c6a0f4debc46a2e7a2cd9e56899a4fb59190a2604051600181526001600160a01b038216907f878d105ed19c01e992a54459c2f04ba19432ac45600b42ce340d0342722074369060200160405180910390a250506001600160a01b0390811660805292831660a052505094851660c0525050501660e05250620001bd92505050565b80516001600160a01b03811681146200013757600080fd5b919050565b60008060008060008060c087890312156200015657600080fd5b62000161876200011f565b955062000171602088016200011f565b945062000181604088016200011f565b935062000191606088016200011f565b9250620001a1608088016200011f565b9150620001b160a088016200011f565b90509295509295509295565b60805160a05160c05160e0516119b46200022f600039600081816101be015281816107770152610b380152600081816103bf015281816107550152610b6701526000818161016d0152818161073401528181610a550152610c180152600081816103350152610f4e01526119b46000f3fe60806040526004361061010d5760003560e01c80639d22ae8c11610095578063c45a015511610064578063c45a015514610323578063ced67f0c14610357578063d9caed121461038d578063ef7e1e89146103ad578063f32a12ac146103e157600080fd5b80639d22ae8c146102ae5780639dd8a81c146102ce578063aa60e733146102ee578063b081b4eb1461030e57600080fd5b806354a0af17116100dc57806354a0af17146101e05780636e9821c2146102005780638037d901146102405780638da5cb5b1461026e5780638e9be9f41461028e57600080fd5b806313af403514610119578063248091c01461013b5780633fc8cef31461015b57806348caa8e3146101ac57600080fd5b3661011457005b600080fd5b34801561012557600080fd5b50610139610134366004611433565b610401565b005b34801561014757600080fd5b506101396101563660046114a3565b610474565b34801561016757600080fd5b5061018f7f000000000000000000000000000000000000000000000000000000000000000081565b6040516001600160a01b0390911681526020015b60405180910390f35b3480156101b857600080fd5b5061018f7f000000000000000000000000000000000000000000000000000000000000000081565b3480156101ec57600080fd5b506101396101fb36600461157d565b610663565b34801561020c57600080fd5b5061023061021b366004611433565b60016020526000908152604090205460ff1681565b60405190151581526020016101a3565b34801561024c57600080fd5b5061026061025b36600461164a565b6106ff565b6040519081526020016101a3565b34801561027a57600080fd5b5060005461018f906001600160a01b031681565b34801561029a57600080fd5b506101396102a93660046114a3565b6107f7565b3480156102ba57600080fd5b506101396102c936600461166c565b610918565b3480156102da57600080fd5b506101396102e93660046116a5565b6109ab565b3480156102fa57600080fd5b5061013961030936600461173f565b610af1565b34801561031a57600080fd5b50610139610c0b565b34801561032f57600080fd5b5061018f7f000000000000000000000000000000000000000000000000000000000000000081565b34801561036357600080fd5b5061018f610372366004611433565b6002602052600090815260409020546001600160a01b031681565b34801561039957600080fd5b506101396103a8366004611758565b610c79565b3480156103b957600080fd5b5061018f7f000000000000000000000000000000000000000000000000000000000000000081565b3480156103ed57600080fd5b506101396103fc3660046117a7565b610cd3565b6000546001600160a01b0316331461042c57604051635fc483c560e01b815260040160405180910390fd5b600080546001600160a01b0319166001600160a01b038316908117825560405190917f167d3e9c1016ab80e58802ca9da10ce5c6a0f4debc46a2e7a2cd9e56899a4fb591a250565b3360009081526001602052604090205460ff166104a45760405163cf1119ab60e01b815260040160405180910390fd5b60005b878110156106585760008989838181106104c3576104c36117d5565b90506020020160208101906104d89190611433565b9050806001600160a01b031663a9059cbb828a8a868181106104fc576104fc6117d5565b6040516001600160e01b031960e087901b1681526001600160a01b03909416600485015260200291909101356024830152506044016020604051808303816000875af1158015610550573d6000803e3d6000fd5b505050506040513d601f19601f8201168201806040525081019061057491906117eb565b5060405163226bf2d160e21b815230600482015260009081906001600160a01b038416906389afcb449060240160408051808303816000875af11580156105bf573d6000803e3d6000fd5b505050506040513d601f19601f820116820180604052508101906105e39190611808565b915091508787858181106105f9576105f96117d5565b90506020020135821080610624575085858581811061061a5761061a6117d5565b9050602002013581105b15610642576040516305f50c7d60e21b815260040160405180910390fd5b505050808061065090611842565b9150506104a7565b505050505050505050565b6000546001600160a01b0316331461068e57604051635fc483c560e01b815260040160405180910390fd5b6000836001600160a01b031683836040516106a9919061185b565b60006040518083038185875af1925050503d80600081146106e6576040519150601f19603f3d011682016040523d82523d6000602084013e6106eb565b606091505b50509050806106f957600080fd5b50505050565b3360009081526001602052604081205460ff1661072f5760405163cf1119ab60e01b815260040160405180910390fd5b61079b7f00000000000000000000000000000000000000000000000000000000000000007f0000000000000000000000000000000000000000000000000000000000000000857f0000000000000000000000000000000000000000000000000000000000000000610d56565b9050818110156107be576040516305f50c7d60e21b815260040160405180910390fd5b6040518181527f4bd1bdc2f263261c65e1cf0d8f7908b6fbf4b4906bafb6a28e11aafdc86c326e9060200160405180910390a192915050565b3360009081526001602052604090205460ff166108275760405163cf1119ab60e01b815260040160405180910390fd5b60005b87811015610658576000898983818110610846576108466117d5565b905060200201602081019061085b9190611433565b90506000888884818110610871576108716117d5565b90506020020160208101906108869190611433565b90506001600160a01b038082169083161060006108a38484610ef9565b90508686868181106108b7576108b76117d5565b905060200201356108e2828b8b898181106108d4576108d46117d5565b90506020020135858761100a565b1015610901576040516305f50c7d60e21b815260040160405180910390fd5b50505050808061091090611842565b91505061082a565b6000546001600160a01b0316331461094357604051635fc483c560e01b815260040160405180910390fd5b6001600160a01b0382811660008181526002602090815260409182902080546001600160a01b0319169486169485179055905192835290917f8357797ab855a0bad5103ea8bd2f21f986350e94d73f143ae114db8f0db5a93a91015b60405180910390a25050565b3360009081526001602052604090205460ff166109db5760405163cf1119ab60e01b815260040160405180910390fd5b60005b85811015610ae85760008787838181106109fa576109fa6117d5565b9050602002016020810190610a0f9190611433565b6001600160a01b03808216600090815260026020526040812054929350911615610a53576001600160a01b0380831660009081526002602052604090205416610a75565b7f00000000000000000000000000000000000000000000000000000000000000005b9050848484818110610a8957610a896117d5565b90506020020135610ab483838a8a88818110610aa757610aa76117d5565b9050602002013530610d56565b1015610ad3576040516305f50c7d60e21b815260040160405180910390fd5b50508080610ae090611842565b9150506109de565b50505050505050565b3360009081526001602052604090205460ff16610b215760405163cf1119ab60e01b815260040160405180910390fd5b60405163a9059cbb60e01b81526001600160a01b037f000000000000000000000000000000000000000000000000000000000000000081166004830152602482018390527f0000000000000000000000000000000000000000000000000000000000000000169063a9059cbb906044016020604051808303816000875af1158015610bb0573d6000803e3d6000fd5b505050506040513d601f19601f82011682018060405250810190610bd491906117eb565b506040518181527f4bd1bdc2f263261c65e1cf0d8f7908b6fbf4b4906bafb6a28e11aafdc86c326e9060200160405180910390a150565b6040516001600160a01b037f000000000000000000000000000000000000000000000000000000000000000016904790600081818185875af1925050503d8060008114610c74576040519150601f19603f3d011682016040523d82523d6000602084013e505050565b505050565b6000546001600160a01b03163314610ca457604051635fc483c560e01b815260040160405180910390fd5b6001600160a01b03831615610cbe57610c748383836112ab565b6000826001600160a01b0316826040516106a9565b6000546001600160a01b03163314610cfe57604051635fc483c560e01b815260040160405180910390fd5b6001600160a01b038216600081815260016020908152604091829020805460ff191685151590811790915591519182527f878d105ed19c01e992a54459c2f04ba19432ac45600b42ce340d034272207436910161099f565b600080610d638686610ef9565b9050610d708682866112ab565b600080826001600160a01b0316630902f1ac6040518163ffffffff1660e01b8152600401606060405180830381865afa158015610db1573d6000803e3d6000fd5b505050506040513d601f19601f82011682018060405250810190610dd591906118a6565b506001600160701b031691506001600160701b03169150866001600160a01b0316886001600160a01b03161015610e7c57610e118683836113cc565b60405163022c0d9f60e01b81529094506001600160a01b0384169063022c0d9f90610e459060009088908a906004016118f6565b600060405180830381600087803b158015610e5f57600080fd5b505af1158015610e73573d6000803e3d6000fd5b50505050610eee565b610e878682846113cc565b60405163022c0d9f60e01b81529094506001600160a01b0384169063022c0d9f90610ebb9087906000908a906004016118f6565b600060405180830381600087803b158015610ed557600080fd5b505af1158015610ee9573d6000803e3d6000fd5b505050505b505050949350505050565b6000806000836001600160a01b0316856001600160a01b031610610f1e578385610f21565b84845b6040516bffffffffffffffffffffffff19606084811b8216602084015283901b16603482015291935091507f00000000000000000000000000000000000000000000000000000000000000009060480160405160208183030381529060405280519060200120604051602001610fe99291906001600160f81b0319815260609290921b6bffffffffffffffffffffffff1916600183015260158201527fae079abb028d7260907dc9ddcc6b31a091e085bc4b9259cd816d3fa5f001953d603582015260550190565b60408051601f19818403018152919052805160209091012095945050505050565b60405163a9059cbb60e01b81526001600160a01b038516600482018190526024820185905260009163a9059cbb906044016020604051808303816000875af115801561105a573d6000803e3d6000fd5b505050506040513d601f19601f8201168201806040525081019061107e91906117eb565b5060405163226bf2d160e21b815230600482015260009081906001600160a01b038816906389afcb449060240160408051808303816000875af11580156110c9573d6000803e3d6000fd5b505050506040513d601f19601f820116820180604052508101906110ed9190611808565b91509150600080886001600160a01b0316630902f1ac6040518163ffffffff1660e01b8152600401606060405180830381865afa158015611132573d6000803e3d6000fd5b505050506040513d601f19601f8201168201806040525081019061115691906118a6565b509150915086156112025761116c868a856112ab565b61118983826001600160701b0316846001600160701b03166113cc565b60405163022c0d9f60e01b81529095506001600160a01b038a169063022c0d9f906111bd90889060009030906004016118f6565b600060405180830381600087803b1580156111d757600080fd5b505af11580156111eb573d6000803e3d6000fd5b5050505083856111fb9190611924565b945061129f565b61120d868a866112ab565b61122a84836001600160701b0316836001600160701b03166113cc565b60405163022c0d9f60e01b81529095506001600160a01b038a169063022c0d9f9061125e90600090899030906004016118f6565b600060405180830381600087803b15801561127857600080fd5b505af115801561128c573d6000803e3d6000fd5b50505050828561129c9190611924565b94505b50505050949350505050565b604080518082018252601981527f7472616e7366657228616464726573732c75696e74323536290000000000000060209182015281516001600160a01b0385811660248301526044808301869052845180840390910181526064909201845291810180516001600160e01b031663a9059cbb60e01b17905291516000928392871691611337919061185b565b6000604051808303816000865af19150503d8060008114611374576040519150601f19603f3d011682016040523d82523d6000602084013e611379565b606091505b50915091508115806113a757508051158015906113a75750808060200190518101906113a591906117eb565b155b156113c5576040516312171d8360e31b815260040160405180910390fd5b5050505050565b6000806113db856103e561193d565b905060006113e9848361193d565b90506000826113fa876103e861193d565b6114049190611924565b9050611410818361195c565b979650505050505050565b6001600160a01b038116811461143057600080fd5b50565b60006020828403121561144557600080fd5b81356114508161141b565b9392505050565b60008083601f84011261146957600080fd5b50813567ffffffffffffffff81111561148157600080fd5b6020830191508360208260051b850101111561149c57600080fd5b9250929050565b6000806000806000806000806080898b0312156114bf57600080fd5b883567ffffffffffffffff808211156114d757600080fd5b6114e38c838d01611457565b909a50985060208b01359150808211156114fc57600080fd5b6115088c838d01611457565b909850965060408b013591508082111561152157600080fd5b61152d8c838d01611457565b909650945060608b013591508082111561154657600080fd5b506115538b828c01611457565b999c989b5096995094979396929594505050565b634e487b7160e01b600052604160045260246000fd5b60008060006060848603121561159257600080fd5b833561159d8161141b565b925060208401359150604084013567ffffffffffffffff808211156115c157600080fd5b818601915086601f8301126115d557600080fd5b8135818111156115e7576115e7611567565b604051601f8201601f19908116603f0116810190838211818310171561160f5761160f611567565b8160405282815289602084870101111561162857600080fd5b8260208601602083013760006020848301015280955050505050509250925092565b6000806040838503121561165d57600080fd5b50508035926020909101359150565b6000806040838503121561167f57600080fd5b823561168a8161141b565b9150602083013561169a8161141b565b809150509250929050565b600080600080600080606087890312156116be57600080fd5b863567ffffffffffffffff808211156116d657600080fd5b6116e28a838b01611457565b909850965060208901359150808211156116fb57600080fd5b6117078a838b01611457565b9096509450604089013591508082111561172057600080fd5b5061172d89828a01611457565b979a9699509497509295939492505050565b60006020828403121561175157600080fd5b5035919050565b60008060006060848603121561176d57600080fd5b83356117788161141b565b925060208401356117888161141b565b929592945050506040919091013590565b801515811461143057600080fd5b600080604083850312156117ba57600080fd5b82356117c58161141b565b9150602083013561169a81611799565b634e487b7160e01b600052603260045260246000fd5b6000602082840312156117fd57600080fd5b815161145081611799565b6000806040838503121561181b57600080fd5b505080516020909101519092909150565b634e487b7160e01b600052601160045260246000fd5b6000600182016118545761185461182c565b5060010190565b6000825160005b8181101561187c5760208186018101518583015201611862565b506000920191825250919050565b80516001600160701b03811681146118a157600080fd5b919050565b6000806000606084860312156118bb57600080fd5b6118c48461188a565b92506118d26020850161188a565b9150604084015163ffffffff811681146118eb57600080fd5b809150509250925092565b92835260208301919091526001600160a01b0316604082015260806060820181905260009082015260a00190565b808201808211156119375761193761182c565b92915050565b60008160001904831182151516156119575761195761182c565b500290565b60008261197957634e487b7160e01b600052601260045260246000fd5b50049056fea26469706673582212201c4bfbdf6100688a21ee2c9116478ac5f691fe172d91ec88a04cf81b54f8ba8964736f6c63430008100033",
  "devdoc": {
    "kind": "dev",
    "methods": {},
    "version": 1
  },
  "userdoc": {
    "kind": "user",
    "methods": {},
    "notice": "Contract for selling weth to pow. Deploy on mainnet.",
    "version": 1
  },
  "storageLayout": {
    "storage": [
      {
        "astId": 13,
        "contract": "contracts/PowMaker.sol:PowMaker",
        "label": "owner",
        "offset": 0,
        "slot": "0",
        "type": "t_address"
      },
      {
        "astId": 17,
        "contract": "contracts/PowMaker.sol:PowMaker",
        "label": "trusted",
        "offset": 0,
        "slot": "1",
        "type": "t_mapping(t_address,t_bool)"
      },
      {
        "astId": 702,
        "contract": "contracts/PowMaker.sol:PowMaker",
        "label": "bridges",
        "offset": 0,
        "slot": "2",
        "type": "t_mapping(t_address,t_address)"
      }
    ],
    "types": {
      "t_address": {
        "encoding": "inplace",
        "label": "address",
        "numberOfBytes": "20"
      },
      "t_bool": {
        "encoding": "inplace",
        "label": "bool",
        "numberOfBytes": "1"
      },
      "t_mapping(t_address,t_address)": {
        "encoding": "mapping",
        "key": "t_address",
        "label": "mapping(address => address)",
        "numberOfBytes": "32",
        "value": "t_address"
      },
      "t_mapping(t_address,t_bool)": {
        "encoding": "mapping",
        "key": "t_address",
        "label": "mapping(address => bool)",
        "numberOfBytes": "32",
        "value": "t_bool"
      }
    }
  }
}